{
  "contractName": "Voting",
  "abi": [
    {
      "inputs": [],
      "stateMutability": "nonpayable",
      "type": "constructor"
    },
    {
      "anonymous": false,
      "inputs": [
        {
          "indexed": true,
          "internalType": "uint256",
          "name": "candidateId",
          "type": "uint256"
        }
      ],
      "name": "CandidateRemoved",
      "type": "event"
    },
    {
      "anonymous": false,
      "inputs": [
        {
          "indexed": true,
          "internalType": "address",
          "name": "voter",
          "type": "address"
        },
        {
          "indexed": false,
          "internalType": "uint256",
          "name": "candidateId",
          "type": "uint256"
        }
      ],
      "name": "Voted",
      "type": "event"
    },
    {
      "anonymous": false,
      "inputs": [
        {
          "indexed": false,
          "internalType": "uint256",
          "name": "start",
          "type": "uint256"
        },
        {
          "indexed": false,
          "internalType": "uint256",
          "name": "end",
          "type": "uint256"
        }
      ],
      "name": "VotingPeriodSet",
      "type": "event"
    },
    {
      "inputs": [],
      "name": "admin",
      "outputs": [
        {
          "internalType": "address",
          "name": "",
          "type": "address"
        }
      ],
      "stateMutability": "view",
      "type": "function",
      "constant": true
    },
    {
      "inputs": [],
      "name": "candidateCount",
      "outputs": [
        {
          "internalType": "uint256",
          "name": "",
          "type": "uint256"
        }
      ],
      "stateMutability": "view",
      "type": "function",
      "constant": true
    },
    {
      "inputs": [
        {
          "internalType": "uint256",
          "name": "",
          "type": "uint256"
        }
      ],
      "name": "candidates",
      "outputs": [
        {
          "internalType": "uint256",
          "name": "id",
          "type": "uint256"
        },
        {
          "internalType": "string",
          "name": "name",
          "type": "string"
        },
        {
          "internalType": "string",
          "name": "party",
          "type": "string"
        },
        {
          "internalType": "uint256",
          "name": "voteCount",
          "type": "uint256"
        },
        {
          "internalType": "bool",
          "name": "exists",
          "type": "bool"
        }
      ],
      "stateMutability": "view",
      "type": "function",
      "constant": true
    },
    {
      "inputs": [
        {
          "internalType": "address",
          "name": "",
          "type": "address"
        }
      ],
      "name": "voters",
      "outputs": [
        {
          "internalType": "bool",
          "name": "",
          "type": "bool"
        }
      ],
      "stateMutability": "view",
      "type": "function",
      "constant": true
    },
    {
      "inputs": [],
      "name": "votingEnd",
      "outputs": [
        {
          "internalType": "uint256",
          "name": "",
          "type": "uint256"
        }
      ],
      "stateMutability": "view",
      "type": "function",
      "constant": true
    },
    {
      "inputs": [],
      "name": "votingStart",
      "outputs": [
        {
          "internalType": "uint256",
          "name": "",
          "type": "uint256"
        }
      ],
      "stateMutability": "view",
      "type": "function",
      "constant": true
    },
    {
      "inputs": [
        {
          "internalType": "string",
          "name": "_name",
          "type": "string"
        },
        {
          "internalType": "string",
          "name": "_party",
          "type": "string"
        }
      ],
      "name": "addCandidate",
      "outputs": [],
      "stateMutability": "nonpayable",
      "type": "function"
    },
    {
      "inputs": [
        {
          "internalType": "uint256",
          "name": "_candidateId",
          "type": "uint256"
        }
      ],
      "name": "removeCandidate",
      "outputs": [],
      "stateMutability": "nonpayable",
      "type": "function"
    },
    {
      "inputs": [
        {
          "internalType": "uint256",
          "name": "_candidateId",
          "type": "uint256"
        }
      ],
      "name": "vote",
      "outputs": [],
      "stateMutability": "nonpayable",
      "type": "function"
    },
    {
      "inputs": [
        {
          "internalType": "uint256",
          "name": "_start",
          "type": "uint256"
        },
        {
          "internalType": "uint256",
          "name": "_end",
          "type": "uint256"
        }
      ],
      "name": "setVotingPeriod",
      "outputs": [],
      "stateMutability": "nonpayable",
      "type": "function"
    },
    {
      "inputs": [
        {
          "internalType": "uint256",
          "name": "_id",
          "type": "uint256"
        }
      ],
      "name": "getCandidate",
      "outputs": [
        {
          "internalType": "uint256",
          "name": "",
          "type": "uint256"
        },
        {
          "internalType": "string",
          "name": "",
          "type": "string"
        },
        {
          "internalType": "string",
          "name": "",
          "type": "string"
        },
        {
          "internalType": "uint256",
          "name": "",
          "type": "uint256"
        }
      ],
      "stateMutability": "view",
      "type": "function",
      "constant": true
    }
  ],
  "bytecode": "0x608060405234801561001057600080fd5b50600280546001600160a01b03191633179055610e0e806100326000396000f3fe608060405234801561001057600080fd5b50600436106100a95760003560e01c806335b8e8201161007157806335b8e8201461012b57806385a386351461014e578063a15a36c714610156578063a3ec138d14610169578063a9a981a314610189578063f851a44014610191576100a9565b80630121b93f146100ae57806309e9d7e2146100c3578063101158af146100d657806326541b56146100f45780633477ee2e14610107575b600080fd5b6100c16100bc366004610a41565b6101a6565b005b6100c16100d1366004610a41565b6102cf565b6100de610399565b6040516100eb9190610ca6565b60405180910390f35b6100c16101023660046109e0565b61039f565b61011a610115366004610a41565b610479565b6040516100eb959493929190610cec565b61013e610139366004610a41565b6105bc565b6040516100eb9493929190610caf565b6100de61074d565b6100c1610164366004610a59565b610753565b61017c6101773660046109b2565b61082f565b6040516100eb9190610ad9565b6100de610844565b61019961084a565b6040516100eb9190610ac5565b6005544210156101d15760405162461bcd60e51b81526004016101c890610b0a565b60405180910390fd5b6004544211156101f35760405162461bcd60e51b81526004016101c890610ae4565b60008111801561020557506003548111155b6102215760405162461bcd60e51b81526004016101c890610b94565b3360009081526001602052604090205460ff16156102515760405162461bcd60e51b81526004016101c890610b6d565b336000908152600160208181526040808420805460ff1916909317909255838352829052812060030180549161028683610d91565b9190505550336001600160a01b03167f4d99b957a2bc29a30ebd96a7be8e68fe50a3c701db28a91436490b7d53870ca4826040516102c49190610ca6565b60405180910390a250565b6002546001600160a01b031633146102f95760405162461bcd60e51b81526004016101c890610c64565b60008181526020819052604090206004015460ff1661032a5760405162461bcd60e51b81526004016101c890610bf6565b6000818152602081905260408120818155906103496001830182610859565b610357600283016000610859565b506000600382018190556004909101805460ff1916905560405182917f294c5a9bc8a39e6e06502bc8da429980f6c7b0990d75b682c12cb8705e3ace8591a250565b60055481565b6002546001600160a01b031633146103c95760405162461bcd60e51b81526004016101c890610c64565b600380549060006103d983610d91565b90915550506040805160a0810182526003548082526020808301868152838501869052600060608501819052600160808601819052938152808352949094208351815593518051939493610434938501929190910190610898565b5060408201518051610450916002840191602090910190610898565b50606082015160038201556080909101516004909101805460ff19169115159190911790555050565b6000602081905290815260409020805460018201805491929161049b90610d56565b80601f01602080910402602001604051908101604052809291908181526020018280546104c790610d56565b80156105145780601f106104e957610100808354040283529160200191610514565b820191906000526020600020905b8154815290600101906020018083116104f757829003601f168201915b50505050509080600201805461052990610d56565b80601f016020809104026020016040519081016040528092919081815260200182805461055590610d56565b80156105a25780601f10610577576101008083540402835291602001916105a2565b820191906000526020600020905b81548152906001019060200180831161058557829003601f168201915b50505050600383015460049093015491929160ff16905085565b60006060806000806000808781526020019081526020016000206040518060a0016040529081600082015481526020016001820180546105fb90610d56565b80601f016020809104026020016040519081016040528092919081815260200182805461062790610d56565b80156106745780601f1061064957610100808354040283529160200191610674565b820191906000526020600020905b81548152906001019060200180831161065757829003601f168201915b5050505050815260200160028201805461068d90610d56565b80601f01602080910402602001604051908101604052809291908181526020018280546106b990610d56565b80156107065780601f106106db57610100808354040283529160200191610706565b820191906000526020600020905b8154815290600101906020018083116106e957829003601f168201915b5050509183525050600382015460208083019190915260049092015460ff161515604091820152825191830151908301516060909301519199909850919650945092505050565b60045481565b6002546001600160a01b0316331461077d5760405162461bcd60e51b81526004016101c890610c64565b42821161079c5760405162461bcd60e51b81526004016101c890610bbf565b8181116107bb5760405162461bcd60e51b81526004016101c890610b36565b62093a806107c98383610d3f565b11156107e75760405162461bcd60e51b81526004016101c890610c2d565b600582905560048190556040517f7e3f7f0708a84de9203036abaa450dccc85ad5ff52f78c170f3edb55cf5e8828906108239084908490610d31565b60405180910390a15050565b60016020526000908152604090205460ff1681565b60035481565b6002546001600160a01b031681565b50805461086590610d56565b6000825580601f106108775750610895565b601f016020900490600052602060002090810190610895919061091c565b50565b8280546108a490610d56565b90600052602060002090601f0160209004810192826108c6576000855561090c565b82601f106108df57805160ff191683800117855561090c565b8280016001018555821561090c579182015b8281111561090c5782518255916020019190600101906108f1565b5061091892915061091c565b5090565b5b80821115610918576000815560010161091d565b600082601f830112610941578081fd5b813567ffffffffffffffff8082111561095c5761095c610dc2565b604051601f8301601f19168101602001828111828210171561098057610980610dc2565b604052828152848301602001861015610997578384fd5b82602086016020830137918201602001929092529392505050565b6000602082840312156109c3578081fd5b81356001600160a01b03811681146109d9578182fd5b9392505050565b600080604083850312156109f2578081fd5b823567ffffffffffffffff80821115610a09578283fd5b610a1586838701610931565b93506020850135915080821115610a2a578283fd5b50610a3785828601610931565b9150509250929050565b600060208284031215610a52578081fd5b5035919050565b60008060408385031215610a6b578182fd5b50508035926020909101359150565b60008151808452815b81811015610a9f57602081850181015186830182015201610a83565b81811115610ab05782602083870101525b50601f01601f19169290920160200192915050565b6001600160a01b0391909116815260200190565b901515815260200190565b6020808252600c908201526b159bdd1a5b99c8195b99195960a21b604082015260600190565b602080825260129082015271159bdd1a5b99c81b9bdd081cdd185c9d195960721b604082015260600190565b6020808252601c908201527f456e642074696d65206d75737420626520616674657220737461727400000000604082015260600190565b6020808252600d908201526c105b1c9958591e481d9bdd1959609a1b604082015260600190565b602080825260119082015270496e76616c69642063616e64696461746560781b604082015260600190565b6020808252601c908201527f53746172742074696d65206d75737420626520696e2066757475726500000000604082015260600190565b60208082526018908201527f43616e64696461746520646f6573206e6f742065786973740000000000000000604082015260600190565b6020808252601b908201527f4d617820766f74696e6720706572696f642069732031207765656b0000000000604082015260600190565b60208082526022908201527f4f6e6c792061646d696e2063616e20706572666f726d2074686973206163746960408201526137b760f11b606082015260800190565b90815260200190565b600085825260806020830152610cc86080830186610a7a565b8281036040840152610cda8186610a7a565b91505082606083015295945050505050565b600086825260a06020830152610d0560a0830187610a7a565b8281036040840152610d178187610a7a565b606084019590955250509015156080909101529392505050565b918252602082015260400190565b600082821015610d5157610d51610dac565b500390565b600281046001821680610d6a57607f821691505b60208210811415610d8b57634e487b7160e01b600052602260045260246000fd5b50919050565b6000600019821415610da557610da5610dac565b5060010190565b634e487b7160e01b600052601160045260246000fd5b634e487b7160e01b600052604160045260246000fdfea2646970667358221220f0a7d5b7801641ce97b039cbc2b8283eed8abdbf3676309eb1cd22f1ac13f99b64736f6c63430008000033",
  "immutableReferences": {},
  "source": "// SPDX-License-Identifier: MIT\r\npragma solidity ^0.8.0;\r\n\r\ncontract Voting {\r\n    struct Candidate {\r\n        uint id;\r\n        string name;\r\n        string party;\r\n        uint voteCount;\r\n        bool exists;\r\n    }\r\n\r\n    mapping(uint => Candidate) public candidates;\r\n    mapping(address => bool) public voters;\r\n    \r\n    address public admin;\r\n    uint public candidateCount;\r\n    uint256 public votingEnd;\r\n    uint256 public votingStart;\r\n    \r\n    event Voted(address indexed voter, uint candidateId);\r\n    event VotingPeriodSet(uint256 start, uint256 end);\r\n    event CandidateRemoved(uint indexed candidateId);\r\n\r\n    modifier onlyAdmin() {\r\n        require(msg.sender == admin, \"Only admin can perform this action\");\r\n        _;\r\n    }\r\n\r\n    constructor() {\r\n        admin = msg.sender;\r\n    }\r\n\r\n    function addCandidate(string memory _name, string memory _party) public onlyAdmin {\r\n        candidateCount++;\r\n        candidates[candidateCount] = Candidate(\r\n            candidateCount,\r\n            _name,\r\n            _party,\r\n            0,\r\n            true\r\n        );\r\n    }\r\n\r\n    function removeCandidate(uint _candidateId) public onlyAdmin {\r\n        require(candidates[_candidateId].exists, \"Candidate does not exist\");\r\n        delete candidates[_candidateId];\r\n        emit CandidateRemoved(_candidateId);\r\n    }\r\n\r\n    function vote(uint _candidateId) public {\r\n        require(block.timestamp >= votingStart, \"Voting not started\");\r\n        require(block.timestamp <= votingEnd, \"Voting ended\");\r\n        require(_candidateId > 0 && _candidateId <= candidateCount, \"Invalid candidate\");\r\n        require(!voters[msg.sender], \"Already voted\");\r\n        \r\n        voters[msg.sender] = true;\r\n        candidates[_candidateId].voteCount++;\r\n        \r\n        emit Voted(msg.sender, _candidateId);\r\n    }\r\n\r\n    function setVotingPeriod(uint256 _start, uint256 _end) public onlyAdmin {\r\n        require(_start > block.timestamp, \"Start time must be in future\");\r\n        require(_end > _start, \"End time must be after start\");\r\n        require(_end - _start <= 7 days, \"Max voting period is 1 week\");\r\n        \r\n        votingStart = _start;\r\n        votingEnd = _end;\r\n        emit VotingPeriodSet(_start, _end);\r\n    }\r\n\r\n    function getCandidate(uint _id) public view returns (uint, string memory, string memory, uint) {\r\n        Candidate memory c = candidates[_id];\r\n        return (c.id, c.name, c.party, c.voteCount);\r\n    }\r\n}",
  "sourcePath": "C:\\Users\\vigne\\OneDrive\\Documents\\vo\\voting\\contracts\\Voting.sol",
  "compiler": {
    "name": "solc",
    "version": "0.8.0+commit.c7dfd78e.Emscripten.clang"
  },
  "schemaVersion": "3.4.16",
  "updatedAt": "2025-05-09T06:19:26.870Z",
  "networkType": "ethereum",
  "devdoc": {
    "kind": "dev",
    "methods": {},
    "version": 1
  },
  "userdoc": {
    "kind": "user",
    "methods": {},
    "version": 1
  }
}